{
  "contractName": "LemonadeStand",
  "abi": [
    {
      "inputs": [],
      "stateMutability": "nonpayable",
      "type": "constructor"
    },
    {
      "anonymous": false,
      "inputs": [
        {
          "indexed": false,
          "internalType": "uint256",
          "name": "skucount",
          "type": "uint256"
        }
      ],
      "name": "Forsale",
      "type": "event"
    },
    {
      "anonymous": false,
      "inputs": [
        {
          "indexed": false,
          "internalType": "uint256",
          "name": "sku",
          "type": "uint256"
        }
      ],
      "name": "shipped",
      "type": "event"
    },
    {
      "anonymous": false,
      "inputs": [
        {
          "indexed": false,
          "internalType": "uint256",
          "name": "sku",
          "type": "uint256"
        }
      ],
      "name": "sold",
      "type": "event"
    },
    {
      "inputs": [
        {
          "internalType": "string",
          "name": "_name",
          "type": "string"
        },
        {
          "internalType": "uint256",
          "name": "_price",
          "type": "uint256"
        }
      ],
      "name": "addItem",
      "outputs": [],
      "stateMutability": "nonpayable",
      "type": "function"
    },
    {
      "inputs": [],
      "name": "getAllItems",
      "outputs": [
        {
          "internalType": "string[]",
          "name": "",
          "type": "string[]"
        },
        {
          "internalType": "uint256[]",
          "name": "",
          "type": "uint256[]"
        },
        {
          "internalType": "uint256[]",
          "name": "",
          "type": "uint256[]"
        },
        {
          "internalType": "uint256[]",
          "name": "",
          "type": "uint256[]"
        },
        {
          "internalType": "address[]",
          "name": "",
          "type": "address[]"
        },
        {
          "internalType": "address[]",
          "name": "",
          "type": "address[]"
        }
      ],
      "stateMutability": "view",
      "type": "function",
      "constant": true
    },
    {
      "inputs": [
        {
          "internalType": "uint256",
          "name": "sku",
          "type": "uint256"
        }
      ],
      "name": "buyItem",
      "outputs": [],
      "stateMutability": "payable",
      "type": "function",
      "payable": true
    },
    {
      "inputs": [
        {
          "internalType": "uint256",
          "name": "_sku",
          "type": "uint256"
        }
      ],
      "name": "fetchItem",
      "outputs": [
        {
          "internalType": "string",
          "name": "name",
          "type": "string"
        },
        {
          "internalType": "uint256",
          "name": "sku",
          "type": "uint256"
        },
        {
          "internalType": "string",
          "name": "stateIs",
          "type": "string"
        },
        {
          "internalType": "address",
          "name": "seller",
          "type": "address"
        },
        {
          "internalType": "address",
          "name": "buyer",
          "type": "address"
        }
      ],
      "stateMutability": "view",
      "type": "function",
      "constant": true
    },
    {
      "inputs": [
        {
          "internalType": "uint256",
          "name": "_sku",
          "type": "uint256"
        }
      ],
      "name": "shipItem",
      "outputs": [
        {
          "internalType": "string",
          "name": "stateIs",
          "type": "string"
        }
      ],
      "stateMutability": "nonpayable",
      "type": "function"
    }
  ],
  "bytecode": "0x608060405234801561001057600080fd5b50336000806101000a81548173ffffffffffffffffffffffffffffffffffffffff021916908373ffffffffffffffffffffffffffffffffffffffff16021790555060006001819055506116e0806100686000396000f3fe60806040526004361061004a5760003560e01c80634ba1d6aa1461004f57806362d6bbdf1461007f578063ad4b9cfb146100a8578063e7fb74c7146100e9578063f61c899a14610105575b600080fd5b34801561005b57600080fd5b50610064610142565b6040516100769695949392919061115a565b60405180910390f35b34801561008b57600080fd5b506100a660048036038101906100a1919061135a565b6105ac565b005b3480156100b457600080fd5b506100cf60048036038101906100ca91906113b6565b6107eb565b6040516100e095949392919061144b565b60405180910390f35b61010360048036038101906100fe91906113b6565b6109e8565b005b34801561011157600080fd5b5061012c600480360381019061012791906113b6565b610be4565b60405161013991906114ac565b60405180910390f35b606080606080606080600060015467ffffffffffffffff81111561016957610168611203565b5b60405190808252806020026020018201604052801561019c57816020015b60608152602001906001900390816101875790505b509050600060015467ffffffffffffffff8111156101bd576101bc611203565b5b6040519080825280602002602001820160405280156101eb5781602001602082028036833780820191505090505b509050600060015467ffffffffffffffff81111561020c5761020b611203565b5b60405190808252806020026020018201604052801561023a5781602001602082028036833780820191505090505b509050600060015467ffffffffffffffff81111561025b5761025a611203565b5b6040519080825280602002602001820160405280156102895781602001602082028036833780820191505090505b509050600060015467ffffffffffffffff8111156102aa576102a9611203565b5b6040519080825280602002602001820160405280156102d85781602001602082028036833780820191505090505b509050600060015467ffffffffffffffff8111156102f9576102f8611203565b5b6040519080825280602002602001820160405280156103275781602001602082028036833780820191505090505b50905060005b60015481101561058b5760006002828154811061034d5761034c6114ce565b5b9060005260206000209060050201905080600001805461036c9061152c565b80601f01602080910402602001604051908101604052809291908181526020018280546103989061152c565b80156103e55780601f106103ba576101008083540402835291602001916103e5565b820191906000526020600020905b8154815290600101906020018083116103c857829003601f168201915b50505050508883815181106103fd576103fc6114ce565b5b602002602001018190525080600101548783815181106104205761041f6114ce565b5b6020026020010181815250508060020154868381518110610444576104436114ce565b5b6020026020010181815250508060030160009054906101000a900460ff1660028111156104745761047361155e565b5b858381518110610487576104866114ce565b5b6020026020010181815250508060030160019054906101000a900473ffffffffffffffffffffffffffffffffffffffff168483815181106104cb576104ca6114ce565b5b602002602001019073ffffffffffffffffffffffffffffffffffffffff16908173ffffffffffffffffffffffffffffffffffffffff16815250508060040160009054906101000a900473ffffffffffffffffffffffffffffffffffffffff1683838151811061053d5761053c6114ce565b5b602002602001019073ffffffffffffffffffffffffffffffffffffffff16908173ffffffffffffffffffffffffffffffffffffffff1681525050508080610583906115bc565b91505061032d565b508585858585859b509b509b509b509b509b50505050505050909192939495565b60008054906101000a900473ffffffffffffffffffffffffffffffffffffffff1673ffffffffffffffffffffffffffffffffffffffff163373ffffffffffffffffffffffffffffffffffffffff161461060457600080fd5b600180546106129190611605565b6001819055507f9035734a7824dec42d4d07bca3a3eaf503db4e79aef1c8a08fd1ee05658a030b600154604051610649919061165b565b60405180910390a16040518060c001604052808381526020016001548152602001828152602001600060028111156106845761068361155e565b5b815260200160008054906101000a900473ffffffffffffffffffffffffffffffffffffffff1673ffffffffffffffffffffffffffffffffffffffff168152602001600073ffffffffffffffffffffffffffffffffffffffff168152506003600060015481526020019081526020016000206000820151816000019080519060200190610711929190610da4565b50602082015181600101556040820151816002015560608201518160030160006101000a81548160ff021916908360028111156107515761075061155e565b5b021790555060808201518160030160016101000a81548173ffffffffffffffffffffffffffffffffffffffff021916908373ffffffffffffffffffffffffffffffffffffffff16021790555060a08201518160040160006101000a81548173ffffffffffffffffffffffffffffffffffffffff021916908373ffffffffffffffffffffffffffffffffffffffff1602179055509050505050565b60606000606060008060006003600088815260200190815260200160002060000180546108179061152c565b80601f01602080910402602001604051908101604052809291908181526020018280546108439061152c565b80156108905780601f1061086557610100808354040283529160200191610890565b820191906000526020600020905b81548152906001019060200180831161087357829003601f168201915b50505050509550600360008881526020019081526020016000206001015494506003600088815260200190815260200160002060030160009054906101000a900460ff1660028111156108e6576108e561155e565b5b9050600081141561092a576040518060400160405280600881526020017f466f722053616c6500000000000000000000000000000000000000000000000081525093505b600181141561096c576040518060400160405280600481526020017f536f6c640000000000000000000000000000000000000000000000000000000081525093505b6003600088815260200190815260200160002060030160019054906101000a900473ffffffffffffffffffffffffffffffffffffffff1692506003600088815260200190815260200160002060040160009054906101000a900473ffffffffffffffffffffffffffffffffffffffff1691505091939590929450565b80600060028111156109fd576109fc61155e565b5b6003600083815260200190815260200160002060030160009054906101000a900460ff166002811115610a3357610a3261155e565b5b14610a3d57600080fd5b600360008381526020019081526020016000206002015480341015610a6157600080fd5b6000339050600060036000868152602001908152602001600020600201549050816003600087815260200190815260200160002060040160006101000a81548173ffffffffffffffffffffffffffffffffffffffff021916908373ffffffffffffffffffffffffffffffffffffffff16021790555060016003600087815260200190815260200160002060030160006101000a81548160ff02191690836002811115610b1057610b0f61155e565b5b021790555060018054610b239190611676565b6001819055506003600086815260200190815260200160002060030160019054906101000a900473ffffffffffffffffffffffffffffffffffffffff1673ffffffffffffffffffffffffffffffffffffffff166108fc829081150290604051600060405180830381858888f19350505050158015610ba5573d6000803e3d6000fd5b507f9c03facbfbb3359f78225339a47f6cdfd0c5dd30af8ac94a64e0fd3191bc8adf85604051610bd5919061165b565b60405180910390a15050505050565b60608160016002811115610bfb57610bfa61155e565b5b6003600083815260200190815260200160002060030160009054906101000a900460ff166002811115610c3157610c3061155e565b5b14610c3b57600080fd5b6003600084815260200190815260200160002060030160019054906101000a900473ffffffffffffffffffffffffffffffffffffffff168073ffffffffffffffffffffffffffffffffffffffff163373ffffffffffffffffffffffffffffffffffffffff1614610caa57600080fd5b600060026003600087815260200190815260200160002060030160006101000a81548160ff02191690836002811115610ce657610ce561155e565b5b02179055506003600086815260200190815260200160002060030160009054906101000a900460ff166002811115610d2157610d2061155e565b5b90506003811415610d65576040518060400160405280600c81526020017f4974656d2073686970706564000000000000000000000000000000000000000081525093505b7fae3fc7024aaab40b80265cc32a3c8894ce4dafdf54b91a78a2aa49f8b0bc521a85604051610d94919061165b565b60405180910390a1505050919050565b828054610db09061152c565b90600052602060002090601f016020900481019282610dd25760008555610e19565b82601f10610deb57805160ff1916838001178555610e19565b82800160010185558215610e19579182015b82811115610e18578251825591602001919060010190610dfd565b5b509050610e269190610e2a565b5090565b5b80821115610e43576000816000905550600101610e2b565b5090565b600081519050919050565b600082825260208201905092915050565b6000819050602082019050919050565b600081519050919050565b600082825260208201905092915050565b60005b83811015610ead578082015181840152602081019050610e92565b83811115610ebc576000848401525b50505050565b6000601f19601f8301169050919050565b6000610ede82610e73565b610ee88185610e7e565b9350610ef8818560208601610e8f565b610f0181610ec2565b840191505092915050565b6000610f188383610ed3565b905092915050565b6000602082019050919050565b6000610f3882610e47565b610f428185610e52565b935083602082028501610f5485610e63565b8060005b85811015610f905784840389528151610f718582610f0c565b9450610f7c83610f20565b925060208a01995050600181019050610f58565b50829750879550505050505092915050565b600081519050919050565b600082825260208201905092915050565b6000819050602082019050919050565b6000819050919050565b610fe181610fce565b82525050565b6000610ff38383610fd8565b60208301905092915050565b6000602082019050919050565b600061101782610fa2565b6110218185610fad565b935061102c83610fbe565b8060005b8381101561105d5781516110448882610fe7565b975061104f83610fff565b925050600181019050611030565b5085935050505092915050565b600081519050919050565b600082825260208201905092915050565b6000819050602082019050919050565b600073ffffffffffffffffffffffffffffffffffffffff82169050919050565b60006110c182611096565b9050919050565b6110d1816110b6565b82525050565b60006110e383836110c8565b60208301905092915050565b6000602082019050919050565b60006111078261106a565b6111118185611075565b935061111c83611086565b8060005b8381101561114d57815161113488826110d7565b975061113f836110ef565b925050600181019050611120565b5085935050505092915050565b600060c08201905081810360008301526111748189610f2d565b90508181036020830152611188818861100c565b9050818103604083015261119c818761100c565b905081810360608301526111b0818661100c565b905081810360808301526111c481856110fc565b905081810360a08301526111d881846110fc565b9050979650505050505050565b6000604051905090565b600080fd5b600080fd5b600080fd5b600080fd5b7f4e487b7100000000000000000000000000000000000000000000000000000000600052604160045260246000fd5b61123b82610ec2565b810181811067ffffffffffffffff8211171561125a57611259611203565b5b80604052505050565b600061126d6111e5565b90506112798282611232565b919050565b600067ffffffffffffffff82111561129957611298611203565b5b6112a282610ec2565b9050602081019050919050565b82818337600083830152505050565b60006112d16112cc8461127e565b611263565b9050828152602081018484840111156112ed576112ec6111fe565b5b6112f88482856112af565b509392505050565b600082601f830112611315576113146111f9565b5b81356113258482602086016112be565b91505092915050565b61133781610fce565b811461134257600080fd5b50565b6000813590506113548161132e565b92915050565b60008060408385031215611371576113706111ef565b5b600083013567ffffffffffffffff81111561138f5761138e6111f4565b5b61139b85828601611300565b92505060206113ac85828601611345565b9150509250929050565b6000602082840312156113cc576113cb6111ef565b5b60006113da84828501611345565b91505092915050565b600082825260208201905092915050565b60006113ff82610e73565b61140981856113e3565b9350611419818560208601610e8f565b61142281610ec2565b840191505092915050565b61143681610fce565b82525050565b611445816110b6565b82525050565b600060a082019050818103600083015261146581886113f4565b9050611474602083018761142d565b818103604083015261148681866113f4565b9050611495606083018561143c565b6114a2608083018461143c565b9695505050505050565b600060208201905081810360008301526114c681846113f4565b905092915050565b7f4e487b7100000000000000000000000000000000000000000000000000000000600052603260045260246000fd5b7f4e487b7100000000000000000000000000000000000000000000000000000000600052602260045260246000fd5b6000600282049050600182168061154457607f821691505b60208210811415611558576115576114fd565b5b50919050565b7f4e487b7100000000000000000000000000000000000000000000000000000000600052602160045260246000fd5b7f4e487b7100000000000000000000000000000000000000000000000000000000600052601160045260246000fd5b60006115c782610fce565b91507fffffffffffffffffffffffffffffffffffffffffffffffffffffffffffffffff8214156115fa576115f961158d565b5b600182019050919050565b600061161082610fce565b915061161b83610fce565b9250827fffffffffffffffffffffffffffffffffffffffffffffffffffffffffffffffff038211156116505761164f61158d565b5b828201905092915050565b6000602082019050611670600083018461142d565b92915050565b600061168182610fce565b915061168c83610fce565b92508282101561169f5761169e61158d565b5b82820390509291505056fea2646970667358221220e13317ea69a424a907c440b8417ce686eb008341e94bc29ae4f44413b178f4b364736f6c634300080a0033",
  "immutableReferences": {},
  "source": "// SPDX-License-Identifier: MIT\npragma solidity >=0.6.0 <0.9.0;\n\ncontract LemonadeStand {\n    address Owner;\n    uint skucount;\n    // address buyer;\n\n    enum State { forsale, sold, shipped}\n\n    struct Item { \n        string name;\n        uint sku;\n        uint price;\n        State state;\n        address seller;\n        address buyer;\n    }\n\nItem [] lemonades;\n    mapping (uint => Item) items;\n\n    // events\n\n    event Forsale(uint skucount);\n    \n    event sold(uint sku);\n\n    event shipped(uint sku);\n\n    constructor () {\n        Owner = msg.sender;\n        skucount = 0;\n    }\n\n    modifier onlyOwner () {\n        require(msg.sender == Owner);\n        _;\n    }\n\n    modifier verifyCaller(address _address) {\n        require(msg.sender == _address);\n        _;\n    }\n\n    modifier paidEnough(uint _price) {\n        require(msg.value >= _price);\n        _;\n    }\n\n    modifier forSale(uint _sku) {\n        require(items[_sku].state == State.forsale);\n        _;\n    }\n\n    modifier Sold(uint _sku) {\n        require(items[_sku].state == State.sold);\n        _; \n    }\n\n    function addItem( string memory  _name, uint _price) onlyOwner public{\n        skucount = skucount + 1;\n\n        emit Forsale(skucount);\n\n        items[skucount] = Item({name: _name, sku: skucount, price: _price, state: State.forsale, seller: Owner, buyer: address(0)});\n    }\n\n  \n\n    function getAllItems() public view returns(string[] memory, uint[] memory, uint[] memory, uint[] memory, address[] memory, address[] memory ){\n        string[] memory names = new string[](skucount);\n        uint[] memory skus  = new uint[](skucount);\n        uint[] memory price = new uint[](skucount);\n        uint[] memory state = new uint[](skucount);\n        address[] memory sellers = new address[](skucount);\n        address[] memory buyers = new address[](skucount);\n\n        for (uint256 index = 0; index < skucount; index++) {\n             Item storage lemo = lemonades[index];\n             names[index] = lemo.name;\n              skus[index] = lemo.sku;\n               price[index] = lemo.price;\n                state[index] = uint(lemo.state);\n                 sellers[index] = lemo.seller;\n                  buyers[index] = lemo.buyer;\n            \n        }\n        \n\n        return (names, skus, price, state, sellers, buyers);\n    }\n   \n\n    function buyItem(uint sku) forSale(sku) paidEnough(items[sku].price) payable public {\n      address   buyer = msg.sender;\n\n        uint price = items[sku].price;\n        items[sku].buyer = buyer;\n\n        items[sku].state = State.sold;\n\n        skucount = skucount - 1;\n\n       payable(items[sku].seller).transfer(price);\n\n        emit sold(sku);\n    }\n\n function fetchItem(uint _sku) public view returns(string memory name, uint sku, string  memory stateIs, address seller, address buyer){\n        uint state;\n\n        name = items[_sku].name;\n        sku = items[_sku].sku;\n       \n        state = uint(items[_sku].state);\n\n        if(state == 0){\n            stateIs = \"For Sale\";\n        }\n\n        if(state == 1) {\n            stateIs = \"Sold\";\n        }\n        seller = items[_sku].seller;\n        buyer  = items[_sku].buyer;\n\n        return (name, sku, stateIs, seller, buyer); \n           }\n\n    function shipItem(uint _sku)  public  Sold(_sku) verifyCaller(items[_sku].seller) returns(string memory stateIs) {\n         uint state;\n\n         items[_sku].state = State.shipped;\n        state = uint(items[_sku].state);\n\n        if(state == 3){\n            stateIs = \"Item shipped\";\n        }\n\n        emit shipped(_sku);\n    }   \n\n}\n   \n",
  "sourcePath": "/Users/laoye_jnr/Documents/Dapp's/Lemonade-Stand/contracts/LemonadeStand.sol",
  "compiler": {
    "name": "solc",
    "version": "0.8.10+commit.fc410830.Emscripten.clang"
  },
  "schemaVersion": "3.4.3",
  "updatedAt": "2021-11-13T19:08:38.746Z",
  "networkType": "ethereum",
  "devdoc": {
    "kind": "dev",
    "methods": {},
    "version": 1
  },
  "userdoc": {
    "kind": "user",
    "methods": {},
    "version": 1
  }
}