{
  "contractName": "LemonadeStand",
  "abi": [
    {
      "inputs": [],
      "stateMutability": "nonpayable",
      "type": "constructor"
    },
    {
      "anonymous": false,
      "inputs": [
        {
          "indexed": false,
          "internalType": "uint256",
          "name": "skucount",
          "type": "uint256"
        }
      ],
      "name": "Forsale",
      "type": "event"
    },
    {
      "anonymous": false,
      "inputs": [
        {
          "indexed": false,
          "internalType": "uint256",
          "name": "sku",
          "type": "uint256"
        }
      ],
      "name": "shipped",
      "type": "event"
    },
    {
      "anonymous": false,
      "inputs": [
        {
          "indexed": false,
          "internalType": "uint256",
          "name": "sku",
          "type": "uint256"
        }
      ],
      "name": "sold",
      "type": "event"
    },
    {
      "inputs": [
        {
          "internalType": "string",
          "name": "_name",
          "type": "string"
        },
        {
          "internalType": "uint256",
          "name": "_price",
          "type": "uint256"
        }
      ],
      "name": "addItem",
      "outputs": [],
      "stateMutability": "nonpayable",
      "type": "function"
    },
    {
      "inputs": [
        {
          "internalType": "uint256",
          "name": "sku",
          "type": "uint256"
        }
      ],
      "name": "buyItem",
      "outputs": [],
      "stateMutability": "payable",
      "type": "function"
    },
    {
      "inputs": [
        {
          "internalType": "uint256",
          "name": "_sku",
          "type": "uint256"
        }
      ],
      "name": "fetchItem",
      "outputs": [
        {
          "internalType": "string",
          "name": "name",
          "type": "string"
        },
        {
          "internalType": "uint256",
          "name": "sku",
          "type": "uint256"
        },
        {
          "internalType": "string",
          "name": "stateIs",
          "type": "string"
        },
        {
          "internalType": "address",
          "name": "seller",
          "type": "address"
        },
        {
          "internalType": "address",
          "name": "buyer",
          "type": "address"
        }
      ],
      "stateMutability": "view",
      "type": "function"
    },
    {
      "inputs": [
        {
          "internalType": "uint256",
          "name": "_sku",
          "type": "uint256"
        }
      ],
      "name": "shipItem",
      "outputs": [
        {
          "internalType": "string",
          "name": "stateIs",
          "type": "string"
        }
      ],
      "stateMutability": "nonpayable",
      "type": "function"
    }
  ],
  "bytecode": "0x608060405234801561001057600080fd5b50336000806101000a81548173ffffffffffffffffffffffffffffffffffffffff021916908373ffffffffffffffffffffffffffffffffffffffff1602179055506000600181905550610eaf806100686000396000f3fe60806040526004361061003f5760003560e01c806362d6bbdf14610044578063ad4b9cfb1461006d578063e7fb74c7146100ae578063f61c899a146100ca575b600080fd5b34801561005057600080fd5b5061006b60048036038101906100669190610b31565b610107565b005b34801561007957600080fd5b50610094600480360381019061008f9190610b8d565b610346565b6040516100a5959493929190610c92565b60405180910390f35b6100c860048036038101906100c39190610b8d565b610543565b005b3480156100d657600080fd5b506100f160048036038101906100ec9190610b8d565b61073f565b6040516100fe9190610cf3565b60405180910390f35b60008054906101000a900473ffffffffffffffffffffffffffffffffffffffff1673ffffffffffffffffffffffffffffffffffffffff163373ffffffffffffffffffffffffffffffffffffffff161461015f57600080fd5b6001805461016d9190610d44565b6001819055507f9035734a7824dec42d4d07bca3a3eaf503db4e79aef1c8a08fd1ee05658a030b6001546040516101a49190610d9a565b60405180910390a16040518060c001604052808381526020016001548152602001828152602001600060028111156101df576101de610db5565b5b815260200160008054906101000a900473ffffffffffffffffffffffffffffffffffffffff1673ffffffffffffffffffffffffffffffffffffffff168152602001600073ffffffffffffffffffffffffffffffffffffffff16815250600260006001548152602001908152602001600020600082015181600001908051906020019061026c9291906108fe565b50602082015181600101556040820151816002015560608201518160030160006101000a81548160ff021916908360028111156102ac576102ab610db5565b5b021790555060808201518160030160016101000a81548173ffffffffffffffffffffffffffffffffffffffff021916908373ffffffffffffffffffffffffffffffffffffffff16021790555060a08201518160040160006101000a81548173ffffffffffffffffffffffffffffffffffffffff021916908373ffffffffffffffffffffffffffffffffffffffff1602179055509050505050565b606060006060600080600060026000888152602001908152602001600020600001805461037290610e13565b80601f016020809104026020016040519081016040528092919081815260200182805461039e90610e13565b80156103eb5780601f106103c0576101008083540402835291602001916103eb565b820191906000526020600020905b8154815290600101906020018083116103ce57829003601f168201915b50505050509550600260008881526020019081526020016000206001015494506002600088815260200190815260200160002060030160009054906101000a900460ff16600281111561044157610440610db5565b5b90506000811415610485576040518060400160405280600881526020017f466f722053616c6500000000000000000000000000000000000000000000000081525093505b60018114156104c7576040518060400160405280600481526020017f536f6c640000000000000000000000000000000000000000000000000000000081525093505b6002600088815260200190815260200160002060030160019054906101000a900473ffffffffffffffffffffffffffffffffffffffff1692506002600088815260200190815260200160002060040160009054906101000a900473ffffffffffffffffffffffffffffffffffffffff1691505091939590929450565b806000600281111561055857610557610db5565b5b6002600083815260200190815260200160002060030160009054906101000a900460ff16600281111561058e5761058d610db5565b5b1461059857600080fd5b6002600083815260200190815260200160002060020154803410156105bc57600080fd5b6000339050600060026000868152602001908152602001600020600201549050816002600087815260200190815260200160002060040160006101000a81548173ffffffffffffffffffffffffffffffffffffffff021916908373ffffffffffffffffffffffffffffffffffffffff16021790555060016002600087815260200190815260200160002060030160006101000a81548160ff0219169083600281111561066b5761066a610db5565b5b02179055506001805461067e9190610e45565b6001819055506002600086815260200190815260200160002060030160019054906101000a900473ffffffffffffffffffffffffffffffffffffffff1673ffffffffffffffffffffffffffffffffffffffff166108fc829081150290604051600060405180830381858888f19350505050158015610700573d6000803e3d6000fd5b507f9c03facbfbb3359f78225339a47f6cdfd0c5dd30af8ac94a64e0fd3191bc8adf856040516107309190610d9a565b60405180910390a15050505050565b6060816001600281111561075657610755610db5565b5b6002600083815260200190815260200160002060030160009054906101000a900460ff16600281111561078c5761078b610db5565b5b1461079657600080fd5b6002600084815260200190815260200160002060030160019054906101000a900473ffffffffffffffffffffffffffffffffffffffff168073ffffffffffffffffffffffffffffffffffffffff163373ffffffffffffffffffffffffffffffffffffffff161461080557600080fd5b6000600280600087815260200190815260200160002060030160006101000a81548160ff021916908360028111156108405761083f610db5565b5b02179055506002600086815260200190815260200160002060030160009054906101000a900460ff16600281111561087b5761087a610db5565b5b905060038114156108bf576040518060400160405280600c81526020017f4974656d2073686970706564000000000000000000000000000000000000000081525093505b7fae3fc7024aaab40b80265cc32a3c8894ce4dafdf54b91a78a2aa49f8b0bc521a856040516108ee9190610d9a565b60405180910390a1505050919050565b82805461090a90610e13565b90600052602060002090601f01602090048101928261092c5760008555610973565b82601f1061094557805160ff1916838001178555610973565b82800160010185558215610973579182015b82811115610972578251825591602001919060010190610957565b5b5090506109809190610984565b5090565b5b8082111561099d576000816000905550600101610985565b5090565b6000604051905090565b600080fd5b600080fd5b600080fd5b600080fd5b6000601f19601f8301169050919050565b7f4e487b7100000000000000000000000000000000000000000000000000000000600052604160045260246000fd5b610a08826109bf565b810181811067ffffffffffffffff82111715610a2757610a266109d0565b5b80604052505050565b6000610a3a6109a1565b9050610a4682826109ff565b919050565b600067ffffffffffffffff821115610a6657610a656109d0565b5b610a6f826109bf565b9050602081019050919050565b82818337600083830152505050565b6000610a9e610a9984610a4b565b610a30565b905082815260208101848484011115610aba57610ab96109ba565b5b610ac5848285610a7c565b509392505050565b600082601f830112610ae257610ae16109b5565b5b8135610af2848260208601610a8b565b91505092915050565b6000819050919050565b610b0e81610afb565b8114610b1957600080fd5b50565b600081359050610b2b81610b05565b92915050565b60008060408385031215610b4857610b476109ab565b5b600083013567ffffffffffffffff811115610b6657610b656109b0565b5b610b7285828601610acd565b9250506020610b8385828601610b1c565b9150509250929050565b600060208284031215610ba357610ba26109ab565b5b6000610bb184828501610b1c565b91505092915050565b600081519050919050565b600082825260208201905092915050565b60005b83811015610bf4578082015181840152602081019050610bd9565b83811115610c03576000848401525b50505050565b6000610c1482610bba565b610c1e8185610bc5565b9350610c2e818560208601610bd6565b610c37816109bf565b840191505092915050565b610c4b81610afb565b82525050565b600073ffffffffffffffffffffffffffffffffffffffff82169050919050565b6000610c7c82610c51565b9050919050565b610c8c81610c71565b82525050565b600060a0820190508181036000830152610cac8188610c09565b9050610cbb6020830187610c42565b8181036040830152610ccd8186610c09565b9050610cdc6060830185610c83565b610ce96080830184610c83565b9695505050505050565b60006020820190508181036000830152610d0d8184610c09565b905092915050565b7f4e487b7100000000000000000000000000000000000000000000000000000000600052601160045260246000fd5b6000610d4f82610afb565b9150610d5a83610afb565b9250827fffffffffffffffffffffffffffffffffffffffffffffffffffffffffffffffff03821115610d8f57610d8e610d15565b5b828201905092915050565b6000602082019050610daf6000830184610c42565b92915050565b7f4e487b7100000000000000000000000000000000000000000000000000000000600052602160045260246000fd5b7f4e487b7100000000000000000000000000000000000000000000000000000000600052602260045260246000fd5b60006002820490506001821680610e2b57607f821691505b60208210811415610e3f57610e3e610de4565b5b50919050565b6000610e5082610afb565b9150610e5b83610afb565b925082821015610e6e57610e6d610d15565b5b82820390509291505056fea2646970667358221220dfa599ab57d3a975c97060ebc3c7170613d6b20de17437522de324c816ca112364736f6c63430008090033",
  "immutableReferences": {},
  "source": "// SPDX-License-Identifier: MIT\npragma solidity >=0.6.0 <0.9.0;\n\ncontract LemonadeStand {\n    address Owner;\n    uint skucount;\n    // address buyer;\n\n    enum State { forsale, sold, shipped}\n\n    struct Item { \n        string name;\n        uint sku;\n        uint price;\n        State state;\n        address seller;\n        address buyer;\n    }\n\n    mapping (uint => Item) items;\n\n    // events\n\n    event Forsale(uint skucount);\n    \n    event sold(uint sku);\n\n    event shipped(uint sku);\n\n    constructor () {\n        Owner = msg.sender;\n        skucount = 0;\n    }\n\n    modifier onlyOwner () {\n        require(msg.sender == Owner);\n        _;\n    }\n\n    modifier verifyCaller(address _address) {\n        require(msg.sender == _address);\n        _;\n    }\n\n    modifier paidEnough(uint _price) {\n        require(msg.value >= _price);\n        _;\n    }\n\n    modifier forSale(uint _sku) {\n        require(items[_sku].state == State.forsale);\n        _;\n    }\n\n    modifier Sold(uint _sku) {\n        require(items[_sku].state == State.sold);\n        _; \n    }\n\n    function addItem( string memory  _name, uint _price) onlyOwner public{\n        skucount = skucount + 1;\n\n        emit Forsale(skucount);\n\n        items[skucount] = Item({name: _name, sku: skucount, price: _price, state: State.forsale, seller: Owner, buyer: address(0)});\n    }\n\n    function buyItem(uint sku) forSale(sku) paidEnough(items[sku].price) payable public {\n      address   buyer = msg.sender;\n\n        uint price = items[sku].price;\n        items[sku].buyer = buyer;\n\n        items[sku].state = State.sold;\n\n        skucount = skucount - 1;\n\n       payable(items[sku].seller).transfer(price);\n\n        emit sold(sku);\n    }\n\n function fetchItem(uint _sku) public view returns(string memory name, uint sku, string  memory stateIs, address seller, address buyer){\n        uint state;\n\n        name = items[_sku].name;\n        sku = items[_sku].sku;\n       \n        state = uint(items[_sku].state);\n\n        if(state == 0){\n            stateIs = \"For Sale\";\n        }\n\n        if(state == 1) {\n            stateIs = \"Sold\";\n        }\n        seller = items[_sku].seller;\n        buyer  = items[_sku].buyer;\n    }\n\n    function shipItem(uint _sku)  public  Sold(_sku) verifyCaller(items[_sku].seller) returns(string memory stateIs) {\n         uint state;\n\n         items[_sku].state = State.shipped;\n        state = uint(items[_sku].state);\n\n        if(state == 3){\n            stateIs = \"Item shipped\";\n        }\n\n        emit shipped(_sku);\n    }   \n\n}\n   \n\n\n\n// https://api-m.sandbox.paypal.com/v1/reporting/transactions?start_date=2021-10-17T00:00:00-0700&end_date=2021-10-19T23:59:59-0700",
  "sourcePath": "/Users/laoye_jnr/Documents/Dapp's/Lemonade-Stand/contracts/lemonade_stand.sol",
  "compiler": {
    "name": "solc",
    "version": "0.8.9+commit.e5eed63a.Emscripten.clang"
  },
  "schemaVersion": "3.4.3",
  "updatedAt": "2021-10-20T11:00:41.562Z",
  "devdoc": {
    "kind": "dev",
    "methods": {},
    "version": 1
  },
  "userdoc": {
    "kind": "user",
    "methods": {},
    "version": 1
  }
}